{
	"contracts/FundMe.sol": {
		"FundMe": {
			"abi": [
				{
					"inputs": [],
					"name": "fund",
					"outputs": [],
					"stateMutability": "payable",
					"type": "function"
				},
				{
					"inputs": [],
					"name": "getConversionRate",
					"outputs": [],
					"stateMutability": "nonpayable",
					"type": "function"
				},
				{
					"inputs": [],
					"name": "getPrice",
					"outputs": [],
					"stateMutability": "nonpayable",
					"type": "function"
				},
				{
					"inputs": [],
					"name": "minimumUsd",
					"outputs": [
						{
							"internalType": "uint256",
							"name": "",
							"type": "uint256"
						}
					],
					"stateMutability": "view",
					"type": "function"
				}
			],
			"devdoc": {
				"kind": "dev",
				"methods": {},
				"version": 1
			},
			"evm": {
				"assembly": "    /* \"contracts/FundMe.sol\":133:500  contract FundMe {... */\n  mstore(0x40, 0x80)\n    /* \"contracts/FundMe.sol\":184:186  50 */\n  0x32\n    /* \"contracts/FundMe.sol\":156:186  uint256 public minimumUsd = 50 */\n  0x00\n  sstore\n    /* \"contracts/FundMe.sol\":133:500  contract FundMe {... */\n  callvalue\n  dup1\n  iszero\n  tag_1\n  jumpi\n  0x00\n  dup1\n  revert\ntag_1:\n  pop\n  dataSize(sub_0)\n  dup1\n  dataOffset(sub_0)\n  0x00\n  codecopy\n  0x00\n  return\nstop\n\nsub_0: assembly {\n        /* \"contracts/FundMe.sol\":133:500  contract FundMe {... */\n      mstore(0x40, 0x80)\n      jumpi(tag_1, lt(calldatasize, 0x04))\n      shr(0xe0, calldataload(0x00))\n      dup1\n      0x098de820\n      eq\n      tag_2\n      jumpi\n      dup1\n      0x98d5fdca\n      eq\n      tag_3\n      jumpi\n      dup1\n      0xb60d4288\n      eq\n      tag_4\n      jumpi\n      dup1\n      0xf36089ec\n      eq\n      tag_5\n      jumpi\n    tag_1:\n      0x00\n      dup1\n      revert\n        /* \"contracts/FundMe.sol\":156:186  uint256 public minimumUsd = 50 */\n    tag_2:\n      callvalue\n      dup1\n      iszero\n      tag_6\n      jumpi\n      0x00\n      dup1\n      revert\n    tag_6:\n      pop\n      tag_7\n      tag_8\n      jump\t// in\n    tag_7:\n      mload(0x40)\n      tag_9\n      swap2\n      swap1\n      tag_10\n      jump\t// in\n    tag_9:\n      mload(0x40)\n      dup1\n      swap2\n      sub\n      swap1\n      return\n        /* \"contracts/FundMe.sol\":302:424  function getPrice() public {... */\n    tag_3:\n      callvalue\n      dup1\n      iszero\n      tag_11\n      jumpi\n      0x00\n      dup1\n      revert\n    tag_11:\n      pop\n      tag_12\n      tag_13\n      jump\t// in\n    tag_12:\n      stop\n        /* \"contracts/FundMe.sol\":192:296  function fund() public payable{... */\n    tag_4:\n      tag_14\n      tag_15\n      jump\t// in\n    tag_14:\n      stop\n        /* \"contracts/FundMe.sol\":430:468  function getConversionRate() public {} */\n    tag_5:\n      callvalue\n      dup1\n      iszero\n      tag_16\n      jumpi\n      0x00\n      dup1\n      revert\n    tag_16:\n      pop\n      tag_17\n      tag_18\n      jump\t// in\n    tag_17:\n      stop\n        /* \"contracts/FundMe.sol\":156:186  uint256 public minimumUsd = 50 */\n    tag_8:\n      sload(0x00)\n      dup2\n      jump\t// out\n        /* \"contracts/FundMe.sol\":302:424  function getPrice() public {... */\n    tag_13:\n      jump\t// out\n        /* \"contracts/FundMe.sol\":192:296  function fund() public payable{... */\n    tag_15:\n        /* \"contracts/FundMe.sol\":254:264  minimumUsd */\n      sload(0x00)\n        /* \"contracts/FundMe.sol\":241:250  msg.value */\n      callvalue\n        /* \"contracts/FundMe.sol\":241:264  msg.value >= minimumUsd */\n      lt\n      iszero\n        /* \"contracts/FundMe.sol\":233:289  require(msg.value >= minimumUsd, \"Didn't send enough!!\") */\n      tag_21\n      jumpi\n      mload(0x40)\n      0x08c379a000000000000000000000000000000000000000000000000000000000\n      dup2\n      mstore\n      0x04\n      add\n      tag_22\n      swap1\n      tag_23\n      jump\t// in\n    tag_22:\n      mload(0x40)\n      dup1\n      swap2\n      sub\n      swap1\n      revert\n    tag_21:\n        /* \"contracts/FundMe.sol\":192:296  function fund() public payable{... */\n      jump\t// out\n        /* \"contracts/FundMe.sol\":430:468  function getConversionRate() public {} */\n    tag_18:\n      jump\t// out\n        /* \"#utility.yul\":7:84   */\n    tag_25:\n        /* \"#utility.yul\":44:51   */\n      0x00\n        /* \"#utility.yul\":73:78   */\n      dup2\n        /* \"#utility.yul\":62:78   */\n      swap1\n      pop\n        /* \"#utility.yul\":7:84   */\n      swap2\n      swap1\n      pop\n      jump\t// out\n        /* \"#utility.yul\":90:208   */\n    tag_26:\n        /* \"#utility.yul\":177:201   */\n      tag_33\n        /* \"#utility.yul\":195:200   */\n      dup2\n        /* \"#utility.yul\":177:201   */\n      tag_25\n      jump\t// in\n    tag_33:\n        /* \"#utility.yul\":172:175   */\n      dup3\n        /* \"#utility.yul\":165:202   */\n      mstore\n        /* \"#utility.yul\":90:208   */\n      pop\n      pop\n      jump\t// out\n        /* \"#utility.yul\":214:436   */\n    tag_10:\n        /* \"#utility.yul\":307:311   */\n      0x00\n        /* \"#utility.yul\":345:347   */\n      0x20\n        /* \"#utility.yul\":334:343   */\n      dup3\n        /* \"#utility.yul\":330:348   */\n      add\n        /* \"#utility.yul\":322:348   */\n      swap1\n      pop\n        /* \"#utility.yul\":358:429   */\n      tag_35\n        /* \"#utility.yul\":426:427   */\n      0x00\n        /* \"#utility.yul\":415:424   */\n      dup4\n        /* \"#utility.yul\":411:428   */\n      add\n        /* \"#utility.yul\":402:408   */\n      dup5\n        /* \"#utility.yul\":358:429   */\n      tag_26\n      jump\t// in\n    tag_35:\n        /* \"#utility.yul\":214:436   */\n      swap3\n      swap2\n      pop\n      pop\n      jump\t// out\n        /* \"#utility.yul\":442:611   */\n    tag_27:\n        /* \"#utility.yul\":526:537   */\n      0x00\n        /* \"#utility.yul\":560:566   */\n      dup3\n        /* \"#utility.yul\":555:558   */\n      dup3\n        /* \"#utility.yul\":548:567   */\n      mstore\n        /* \"#utility.yul\":600:604   */\n      0x20\n        /* \"#utility.yul\":595:598   */\n      dup3\n        /* \"#utility.yul\":591:605   */\n      add\n        /* \"#utility.yul\":576:605   */\n      swap1\n      pop\n        /* \"#utility.yul\":442:611   */\n      swap3\n      swap2\n      pop\n      pop\n      jump\t// out\n        /* \"#utility.yul\":617:787   */\n    tag_28:\n        /* \"#utility.yul\":757:779   */\n      0x4469646e27742073656e6420656e6f7567682121000000000000000000000000\n        /* \"#utility.yul\":753:754   */\n      0x00\n        /* \"#utility.yul\":745:751   */\n      dup3\n        /* \"#utility.yul\":741:755   */\n      add\n        /* \"#utility.yul\":734:780   */\n      mstore\n        /* \"#utility.yul\":617:787   */\n      pop\n      jump\t// out\n        /* \"#utility.yul\":793:1159   */\n    tag_29:\n        /* \"#utility.yul\":935:938   */\n      0x00\n        /* \"#utility.yul\":956:1023   */\n      tag_39\n        /* \"#utility.yul\":1020:1022   */\n      0x14\n        /* \"#utility.yul\":1015:1018   */\n      dup4\n        /* \"#utility.yul\":956:1023   */\n      tag_27\n      jump\t// in\n    tag_39:\n        /* \"#utility.yul\":949:1023   */\n      swap2\n      pop\n        /* \"#utility.yul\":1032:1125   */\n      tag_40\n        /* \"#utility.yul\":1121:1124   */\n      dup3\n        /* \"#utility.yul\":1032:1125   */\n      tag_28\n      jump\t// in\n    tag_40:\n        /* \"#utility.yul\":1150:1152   */\n      0x20\n        /* \"#utility.yul\":1145:1148   */\n      dup3\n        /* \"#utility.yul\":1141:1153   */\n      add\n        /* \"#utility.yul\":1134:1153   */\n      swap1\n      pop\n        /* \"#utility.yul\":793:1159   */\n      swap2\n      swap1\n      pop\n      jump\t// out\n        /* \"#utility.yul\":1165:1584   */\n    tag_23:\n        /* \"#utility.yul\":1331:1335   */\n      0x00\n        /* \"#utility.yul\":1369:1371   */\n      0x20\n        /* \"#utility.yul\":1358:1367   */\n      dup3\n        /* \"#utility.yul\":1354:1372   */\n      add\n        /* \"#utility.yul\":1346:1372   */\n      swap1\n      pop\n        /* \"#utility.yul\":1418:1427   */\n      dup2\n        /* \"#utility.yul\":1412:1416   */\n      dup2\n        /* \"#utility.yul\":1408:1428   */\n      sub\n        /* \"#utility.yul\":1404:1405   */\n      0x00\n        /* \"#utility.yul\":1393:1402   */\n      dup4\n        /* \"#utility.yul\":1389:1406   */\n      add\n        /* \"#utility.yul\":1382:1429   */\n      mstore\n        /* \"#utility.yul\":1446:1577   */\n      tag_42\n        /* \"#utility.yul\":1572:1576   */\n      dup2\n        /* \"#utility.yul\":1446:1577   */\n      tag_29\n      jump\t// in\n    tag_42:\n        /* \"#utility.yul\":1438:1577   */\n      swap1\n      pop\n        /* \"#utility.yul\":1165:1584   */\n      swap2\n      swap1\n      pop\n      jump\t// out\n\n    auxdata: 0xa2646970667358221220d8203aa9ef8ef5b4d71eb7080b3f36f15b6c13a87aeba2c256133240b4c4ef3464736f6c63430008080033\n}\n",
				"bytecode": {
					"linkReferences": {},
					"object": "6080604052603260005534801561001557600080fd5b506101df806100256000396000f3fe60806040526004361061003f5760003560e01c8063098de8201461004457806398d5fdca1461006f578063b60d428814610086578063f36089ec14610090575b600080fd5b34801561005057600080fd5b506100596100a7565b6040516100669190610111565b60405180910390f35b34801561007b57600080fd5b506100846100ad565b005b61008e6100af565b005b34801561009c57600080fd5b506100a56100f6565b005b60005481565b565b6000543410156100f4576040517f08c379a00000000000000000000000000000000000000000000000000000000081526004016100eb90610189565b60405180910390fd5b565b565b6000819050919050565b61010b816100f8565b82525050565b60006020820190506101266000830184610102565b92915050565b600082825260208201905092915050565b7f4469646e27742073656e6420656e6f7567682121000000000000000000000000600082015250565b600061017360148361012c565b915061017e8261013d565b602082019050919050565b600060208201905081810360008301526101a281610166565b905091905056fea2646970667358221220d8203aa9ef8ef5b4d71eb7080b3f36f15b6c13a87aeba2c256133240b4c4ef3464736f6c63430008080033",
					"opcodes": "PUSH1 0x80 PUSH1 0x40 MSTORE PUSH1 0x32 PUSH1 0x0 SSTORE CALLVALUE DUP1 ISZERO PUSH2 0x15 JUMPI PUSH1 0x0 DUP1 REVERT JUMPDEST POP PUSH2 0x1DF DUP1 PUSH2 0x25 PUSH1 0x0 CODECOPY PUSH1 0x0 RETURN INVALID PUSH1 0x80 PUSH1 0x40 MSTORE PUSH1 0x4 CALLDATASIZE LT PUSH2 0x3F JUMPI PUSH1 0x0 CALLDATALOAD PUSH1 0xE0 SHR DUP1 PUSH4 0x98DE820 EQ PUSH2 0x44 JUMPI DUP1 PUSH4 0x98D5FDCA EQ PUSH2 0x6F JUMPI DUP1 PUSH4 0xB60D4288 EQ PUSH2 0x86 JUMPI DUP1 PUSH4 0xF36089EC EQ PUSH2 0x90 JUMPI JUMPDEST PUSH1 0x0 DUP1 REVERT JUMPDEST CALLVALUE DUP1 ISZERO PUSH2 0x50 JUMPI PUSH1 0x0 DUP1 REVERT JUMPDEST POP PUSH2 0x59 PUSH2 0xA7 JUMP JUMPDEST PUSH1 0x40 MLOAD PUSH2 0x66 SWAP2 SWAP1 PUSH2 0x111 JUMP JUMPDEST PUSH1 0x40 MLOAD DUP1 SWAP2 SUB SWAP1 RETURN JUMPDEST CALLVALUE DUP1 ISZERO PUSH2 0x7B JUMPI PUSH1 0x0 DUP1 REVERT JUMPDEST POP PUSH2 0x84 PUSH2 0xAD JUMP JUMPDEST STOP JUMPDEST PUSH2 0x8E PUSH2 0xAF JUMP JUMPDEST STOP JUMPDEST CALLVALUE DUP1 ISZERO PUSH2 0x9C JUMPI PUSH1 0x0 DUP1 REVERT JUMPDEST POP PUSH2 0xA5 PUSH2 0xF6 JUMP JUMPDEST STOP JUMPDEST PUSH1 0x0 SLOAD DUP2 JUMP JUMPDEST JUMP JUMPDEST PUSH1 0x0 SLOAD CALLVALUE LT ISZERO PUSH2 0xF4 JUMPI PUSH1 0x40 MLOAD PUSH32 0x8C379A000000000000000000000000000000000000000000000000000000000 DUP2 MSTORE PUSH1 0x4 ADD PUSH2 0xEB SWAP1 PUSH2 0x189 JUMP JUMPDEST PUSH1 0x40 MLOAD DUP1 SWAP2 SUB SWAP1 REVERT JUMPDEST JUMP JUMPDEST JUMP JUMPDEST PUSH1 0x0 DUP2 SWAP1 POP SWAP2 SWAP1 POP JUMP JUMPDEST PUSH2 0x10B DUP2 PUSH2 0xF8 JUMP JUMPDEST DUP3 MSTORE POP POP JUMP JUMPDEST PUSH1 0x0 PUSH1 0x20 DUP3 ADD SWAP1 POP PUSH2 0x126 PUSH1 0x0 DUP4 ADD DUP5 PUSH2 0x102 JUMP JUMPDEST SWAP3 SWAP2 POP POP JUMP JUMPDEST PUSH1 0x0 DUP3 DUP3 MSTORE PUSH1 0x20 DUP3 ADD SWAP1 POP SWAP3 SWAP2 POP POP JUMP JUMPDEST PUSH32 0x4469646E27742073656E6420656E6F7567682121000000000000000000000000 PUSH1 0x0 DUP3 ADD MSTORE POP JUMP JUMPDEST PUSH1 0x0 PUSH2 0x173 PUSH1 0x14 DUP4 PUSH2 0x12C JUMP JUMPDEST SWAP2 POP PUSH2 0x17E DUP3 PUSH2 0x13D JUMP JUMPDEST PUSH1 0x20 DUP3 ADD SWAP1 POP SWAP2 SWAP1 POP JUMP JUMPDEST PUSH1 0x0 PUSH1 0x20 DUP3 ADD SWAP1 POP DUP2 DUP2 SUB PUSH1 0x0 DUP4 ADD MSTORE PUSH2 0x1A2 DUP2 PUSH2 0x166 JUMP JUMPDEST SWAP1 POP SWAP2 SWAP1 POP JUMP INVALID LOG2 PUSH5 0x6970667358 0x22 SLT KECCAK256 0xD8 KECCAK256 GASPRICE 0xA9 0xEF DUP15 CREATE2 0xB4 0xD7 0x1E 0xB7 ADDMOD SIGNEXTEND EXTCODEHASH CALLDATASIZE CALL JUMPDEST PUSH13 0x13A87AEBA2C256133240B4C4EF CALLVALUE PUSH5 0x736F6C6343 STOP ADDMOD ADDMOD STOP CALLER "
				},
				"gasEstimates": {
					"creation": {
						"codeDepositCost": "95800",
						"executionCost": "22247",
						"totalCost": "118047"
					},
					"external": {
						"fund()": "2556",
						"getConversionRate()": "188",
						"getPrice()": "144",
						"minimumUsd()": "2407"
					}
				},
				"methodIdentifiers": {
					"fund()": "b60d4288",
					"getConversionRate()": "f36089ec",
					"getPrice()": "98d5fdca",
					"minimumUsd()": "098de820"
				}
			},
			"storageLayout": {
				"storage": [
					{
						"astId": 51,
						"contract": "contracts/FundMe.sol:FundMe",
						"label": "minimumUsd",
						"offset": 0,
						"slot": "0",
						"type": "t_uint256"
					}
				],
				"types": {
					"t_uint256": {
						"encoding": "inplace",
						"label": "uint256",
						"numberOfBytes": "32"
					}
				}
			},
			"userdoc": {
				"kind": "user",
				"methods": {},
				"version": 1
			}
		}
	}
}